:020000040800F2
:1000000098040020390100088D19000865190008BE
:100010008919000881080008F51A0008000000008E
:10002000000000000000000000000000951900081A
:1000300085080008000000009119000899190008BF
:100040005301000853010008530100085301000840
:100050005301000853010008530100085301000830
:100060005301000853010008530100085301000820
:100070005301000853010008530100085301000810
:100080005301000853010008530100085301000800
:1000900053010008530100085301000853010008F0
:1000A00053010008530100085301000853010008E0
:1000B00053010008530100085301000853010008D0
:1000C00053010008530100085301000853010008C0
:1000D0005301000853010008E91A00085301000801
:1000E00053010008530100085301000853010008A0
:1000F00053010008000000005301000853010008EC
:10010000530100085301000853010008530100087F
:1001100053010008530100085301000800000000CB
:1001200053010008DFF80CD000F0A8FA004800479F
:10013000C91B00089804002006488047064800476D
:10014000FEE7FEE7FEE7FEE7FEE7FEE7FEE7FEE787
:10015000FEE7FEE79D19000825010008421C10F883
:10016000011B0029FBD1801A704710B5002200E066
:10017000521C835C8C5CA34201D1002BF8D1D8B215
:10018000E1B2401A10BD000070B50F4D00B92868EB
:10019000002412E00A4602E09E4203D0521C13786B
:1001A000002BF9D1DAB2224305D02BB124B10021C2
:1001B00000F8011B04E00446401C0678002EE9D13B
:1001C0002860204670BD00000000002070B5064683
:1001D00001F0BAFD046805460A220021304600F00D
:1001E0005CF82C6070BD00F0004230F000400AD096
:1001F000C10D01F56071C0F3160042EA0151C20859
:1002000040071143704700200146704730B50B4648
:10021000014600202022012409E021FA02F59D4236
:1002200005D303FA02F5491B04FA02F52844151E0A
:10023000A2F10102F1DC30BD2DE9F05F054600209E
:1002400092469B4688460646814640241BE0284647
:1002500041464746224600F032FA53465A46C01AF3
:10026000914110D311461846224600F019FA2D1A72
:1002700067EB01084F4622460120002100F010FAEA
:1002800017EB00094E41201EA4F10104DFDC4846B3
:1002900031462A464346BDE8F09F2DE9F047914696
:1002A0000F4680460446002614F8015B2DB100F08D
:1002B00029FA0068405DC007F6D12B2D02D02D2D04
:1002C00018D0641E4A463946204600F01FFA27B16E
:1002D0003968A14201D1C7F8008071054FF00204CE
:1002E0000BD54042002803DD01F02EFD0460A0077D
:1002F000BDE8F08746F48066E4E70028F8DA01F00C
:1003000023FD04606FF00040F2E72DE9FE4F8046C8
:1003100081EA0300C00F0C46009021F0004123F059
:100320000045B8EB0200A94105D24046214690465F
:100330001C460B46024623F00040104347D0270DD1
:10034000C7F30A00C3F30A510290401A01904028F3
:100350006BDAC3F3130040F4801B0098924620B17F
:100360000023D2EB030A63EB0B0B01985946C0F153
:100370004002504600F094F906460D465046594654
:10038000019A00F0ACF910EB08006141002487EA03
:10039000115284EAE7731A4340D0009A62B3019A7B
:1003A000012A4FEA075215DC001B61EB02014FF0F6
:1003B000004202EA0752CDE90042001C41F58011DB
:1003C00032462B4600F000FA03B0BDE8F08F4046FD
:1003D0002146F9E7001B61EB0201001C41F5801387
:1003E00000185B412018A2F5001747EB030140EA13
:1003F000D570B6196D4111E06D084FEA360645EA31
:10040000C0754FEA0752001B61EB0201001C41F569
:10041000801149084FEA30000019514132462B46FD
:1004200003B0BDE8F04F00F0C0B9009801224000D1
:100430000023D0EB020263EBE073009821464FEA01
:10044000E074B8EB000061EB0401E9E783F00043DE
:100450005BE781F0004158E72DE9FE4F81EA030494
:1004600004F0004421F0004100944FF0000B23F011
:10047000004350EA01045ED052EA03045BD0C3F3A8
:100480000A54C1F30A552C44A4F2F3340194A0FB9E
:100490000254C1F3130141F48011C3F3130343F475
:1004A000801301FB024400FB034E840A970A44EACE
:1004B000815447EA8357A4FB076802958D0A05FB20
:1004C00007854FEA932C04FB0C542705029D4FEA45
:1004D000065847EA1637B5EB08056EEB070C870E92
:1004E000920E47EA811742EA8312A7FB0201B6EB9C
:1004F0000B0164EB00042B0D43EA0C335E1844EB54
:100500001C50DA465146E7FB0201C5F313044FEADB
:100510000B3343EA14534FEA0432019C43EA0603C7
:10052000A4F10C040294009CCDE900B400F04CF955
:1005300003B0BDE8F08F00200146F9E72DE9F04D4A
:1005400081EA030404F0004B21F0004514464FF00B
:10055000000A23F0004150EA050220D054EA0102CB
:100560001DD0C5F30A570246C5F31303C1F31300A8
:10057000C1F30A5640F4801543F48013A7EB060834
:10058000101BD64608F2FD3873EB050002D308F1C4
:10059000010801E092185B41B8F1000F03DA002076
:1005A0000146BDE8F08D00204FF4801106468446D8
:1005B0000EE0171B73EB050705D3121B63EB050356
:1005C00006434CEA010C49084FEA300092185B419F
:1005D00050EA0107EDD152EA030012D082EA04008A
:1005E00083EA0501084305D0101BAB4106D2012266
:1005F000002306E000224FF0004302E06FF001020A
:1006000053101AEB06004CEB085110EB0A0041EBBB
:100610000B01BDE8F04D00F0C8B8C1F30A52C1F3B8
:10062000130140F2FF3341F480119A4202DA0020B4
:100630000146704740F233439A42A2F2334202DC51
:10064000524200F03CB800F02BB8000030B5041E58
:1006500071F1000404DB4FF00044404264EB0101FF
:10066000141E73F1000405DB1C464FF00043524298
:1006700063EB0403994208BF904230BD064C074D1E
:1006800006E0E06840F0010394E807009847103462
:10069000AC42F6D3FFF74AFDD8260008F82600083A
:1006A000202A04DB203A00FA02F100207047914032
:1006B000C2F1200320FA03F3194390407047202A27
:1006C00004DB203A21FA02F00021704721FA02F3FC
:1006D000D040C2F120029140084319467047202AB9
:1006E00006DBCB17203A41FA02F043EAE07306E05A
:1006F00041FA02F3D040C2F120029140084319466A
:100700007047000000487047B02600082DE9F05FF0
:1007100082460078002715468B460AF10104B94647
:10072000302801D09DB113E014F8010B012778287F
:1007300003D0582801D045B10AE00DB1102D07D1E2
:100740000027102514F8010B02E0082500E00A2517
:100750000026B0460EE005FB080005FB06F1012768
:1007600001EB10461FFA80F8B6F5803F00D3B9467A
:1007700014F8010B294600F075F80028EBDABBF1FC
:10078000000F05D00FB1641E00E05446CBF80040C6
:10079000B9F1000F06D001F0D7FA02210160C81E9E
:1007A000BDE8F09F48EA0640FAE710B5141E73F161
:1007B000000408DA401C41F1000192185B411A4321
:1007C00001D120F0010010BD2DE9F04D92469B466D
:1007D00011B1B1FA81F202E0B0FA80F22032904613
:1007E000FFF75EFF04460F4640EA0A0041EA0B01AC
:1007F00053465A46084313D0114653EA010019D014
:10080000C8F140025046FFF75AFF05460E465046D3
:1008100059464246FFF744FF084305D0012004E053
:1008200020463946BDE8F08D0020054346EAE076D3
:100830002C4337430A986305E40AA0EB0800002222
:10084000FD0A44EA47540A3002D500200146E9E790
:10085000010510196941DDE9084500196941BDE844
:10086000F04DA2E73A2800D2303820F02002412A89
:1008700001D3A2F13700884201D34FF0FF30704717
:10088000FEE700007047000080B590F821100229B3
:1008900022D10168D0F834E0D0E90FC30A68BEF174
:1008A000000F22F00E020A600A6822F001020A60BC
:1008B00003F01C014FF0010202FA01F1CCF8041020
:1008C0004FF0000180F8212080F8201001D0F0477F
:1008D0000021084680BD00BF04218163012080BD46
:1008E0002DE9F04F82B00A68002A00F0BF8000F1C5
:1008F0003E4741F6000607F1FF74C4F202060723E3
:1009000040F2004E4FEAB425B04208BF0623C4F2BD
:10091000010E062D38BF4FEAB42300244FF0010B1F
:1009200000260027009309E00A68013732FA07F32E
:1009300006F1020604F1040400F098800BFA07F9AE
:1009400012EA0908F0D04A6842F01005122D13D1BE
:100950006FF0030202EA57020244D2F820A004F02A
:100960001C030F25D1F810C09D402AEA05050CFA9A
:1009700003F32B4313624A6803680325B5406FEA0B
:10098000050AAB4302F00305B5402B43122A03606E
:1009900012D80BFA02F313F0061F0DD08368CD684E
:1009A00003EA0A03B5402B4383604368150923EA31
:1009B0000903BD402B434360C3688D6803EA0A0303
:1009C000B5402B43D200C360AED543F62003C4F23A
:1009D00002031A684FF6084942F001021A601A68C9
:1009E000CFF6FF7902F001020192019A27F003028B
:1009F000724452F809C004F00C050F23AB402CEAF6
:100A0000030C009B03FA05F545EA0C0342F8093094
:100A1000DEF800C04B684CEA0805DA0358BF2CEA40
:100A20000805CEF80050DEF804C09A034CEA080529
:100A300058BF2CEA0805CEF80450DEF808C0DA02E8
:100A40004CEA080558BF2CEA080540F20C4CCEF8D9
:100A50000850C4F2010CDCF800209B0242EA0805B1
:100A600058BF22EA0805CCF800505DE702B0BDE8A7
:100A7000F08F000040F29400C2F20000006870475E
:100A800040F2080040F29401C2F20000C2F20001FC
:100A900040680A68104408607047000080B5032071
:100AA00000F098F8002000F009F800281CBF012091
:100AB00080BD00F029F8002080BD000070B540F234
:100AC0000806C2F200067168E1B1044640F2100067
:100AD000C2F200004FF47A720068B2FBF1F1B0FB91
:100AE000F1F000F07DFC0F2C4FF0010508D838B96B
:100AF0004FF0FF3021460022002500F03FF834601F
:100B0000284670BD012070BD83B043F62400C4F2B6
:100B10000200016841F000410160016801F00041FC
:100B20000291029950F8041C41F0010140F8041CA4
:100B300050F8041C01F0010101910199016841F094
:100B400080510160006800F080500090009803B070
:100B500070470000002848BF7047C1B200F01F0076
:100B6000012202FA00F04EF20012CEF2000242EA36
:100B7000D10121F0030108607047000010B54EF666
:100B80000C5CCEF2000CDCF80030C3F3022E8EF0C9
:100B90000704042C28BF0424BEF103034FF0FF3EDA
:100BA0000EFA04F438BF0023A14399400EFA03F370
:100BB0009A43114300F00F0200F160430901043A27
:100BC00003F564436244002848BF02F10C03197026
:100BD00010BD00004EF60C51CEF200010A684FF62F
:100BE000FF031A4060F30A2242F0806040F0FD707B
:100BF000086070472DE9F041002800F0BF8043F6FF
:100C00000807C4F202070446D7F8F8030D4600F0BF
:100C10000100884215D2012D05D1D7F8F80340F024
:100C20000400C7F8F803D7F8F80320F001002843C0
:100C3000C7F8F803D7F8F80300F00100A84240F025
:100C40009D802068810705D53968A26821F0F001F0
:100C500011433960C00737D1D7F8F80300F001001D
:100C6000A8420AD9D7F8F80320F00100C7F8F80322
:100C7000D7F8F803C00740F081802068410705D508
:100C80003968E26821F4E06111433960000706D554
:100C90003868216920F4605040EAC1003860396842
:100CA000C1F3810242F20040C0F2F400DFE802F03A
:100CB00002391C2257F8040C4FF48031C0F3423043
:100CC00001FA00F02DE000BF6068012842D003283F
:100CD00048D002284ED157F8081C89035CBF012078
:100CE000BDE8F0814EE000BF43F20060C0F26E103C
:100CF00017E000BF42F2CC63C1F38342C0F60003A9
:100D00009A5C3B68C1F38151DB0343F20063C0F29C
:100D10006E1301F1010158BF034603FB02F0B0FB63
:100D2000F1F0396842F2B462C1F30311C0F6000277
:100D3000515C40F2100220FA01F140F20800C2F2C8
:100D400000000068C2F200021160BDE8F041FFF748
:100D5000B5BE00BF57F8081C89075CBF0120BDE87D
:100D6000F0810FE057F8081C89015CBF0120BDE845
:100D7000F08107E057F8081C890503D40120BDE87D
:100D8000F08100BF396821F0030108433860FFF7A4
:100D900071FE61680646032941F288382BD002298A
:100DA00037D0012910D100BF386800F00C000428AA
:100DB0003FF452AFFFF75EFE801B40454FF003004B
:100DC000F2D9BDE8F08100BF386810F00C0F3FF495
:100DD00043AFFFF74FFE801B40454FF0030088BF35
:100DE000BDE8F081F0E700BFFFF744FE801B4045FF
:100DF0004FF00300E5D8386800F00C000C28F3D160
:100E00002AE700BFFFF736FE801B40454FF0030086
:100E1000D7D8386800F00C000828F3D11CE7000090
:100E200040F2100043F60801C2F20000C4F20201D1
:100E30000068096842F2C462C1F30221C0F60002F0
:100E4000515CC8407047000040F2100043F60801B2
:100E5000C2F20000C4F202010068096842F2C462F2
:100E6000C1F3C221C0F60002515CC84070470000C7
:100E70002DE9F04383B0002800F0AE8243F600066F
:100E80000446C4F20206B068B168227800F00C098A
:100E9000D00701F4803710D0B9F1080F06D0B9F1AE
:100EA0000C0F40F0E580002F00F0E28030688003F6
:100EB00003D56068002800F08F82207880072FD546
:100EC000B9F1040F1ED0B9F10C0F08BF002F19D0D3
:100ED000E068002800F04C810020C4F24720012186
:100EE0000160FFF7C7FD05463068800711D4FFF7A2
:100EF000C1FD401B02284FF00300F5D903B0BDE847
:100F0000F08300BF3068800703D5E068012840F017
:100F100063827068216920F4F85040EA0120706013
:100F20002078C00626D4207800073DD420784007DA
:100F300050D4656ACDB1B9F10C0F40F0D580012DC8
:100F400000F04A82B068A16A00F480328A4240F020
:100F50004382E16A00F470128A4240F03D82216BC4
:100F600000F44000884240F03782002003B0BDE822
:100F7000F08300BFB9F1000F66D0A069002800F02F
:100F80009F800020C4F2472001210162FFF772FD1B
:100F9000054600BF3068800500F1C880FFF76AFD94
:100FA000401B0228F6D927E16069002872D0002092
:100FB000C4F247200121C0F88016FFF75BFD05460B
:100FC000706B8007B2D4FFF755FD401B0228F7D99C
:100FD00012E100BF706A10F0805808D1706A40F0CA
:100FE00080507062706A00F080500090009847F264
:100FF0000007C4F200073868C00513D4386840F40D
:1010000080703860FFF736FD054600BF3868C005C0
:1010100008D4FFF72FFD401B64284FF00300F5D9DB
:101020006CE700BFA068002800F0B680052800F03B
:10103000CD80012800F0CE80706B20F4807070634A
:10104000706B20F48060C8E03068800503D5A0692B
:10105000002800F0C181206A716801F46041884273
:1010600072D9B16811F0F00F00F0048100215BE14A
:101070006068002800F0CE80052800F0E380012899
:1010800000F0E480306820F480303060306820F474
:101090008020DEE00020C4F247200021C0F8801646
:1010A000FFF7E8FC054600BF706B80077FF53EAF99
:1010B000FFF7E0FC401B02284FF00300F4D91DE7C6
:1010C0000020C4F2472000210162FFF7D3FC05464F
:1010D000306880057FF527AFFFF7CCFC401B022866
:1010E0004FF00300F4D909E70027C4F24727002096
:1010F0003866FFF7BFFC022D05460BD13068800132
:1011000040F1CE80FFF7B6FC401B02284FF00300F1
:10111000F4D9F3E6306880017FF527AFFFF7AAFC2A
:10112000401B02284FF00300F4D9E7E67068D4E9C9
:10113000072120F4604008437060706820F07F4011
:1011400040EA02607060EEE6716821F4604101439C
:1011500071607168E26921F07F4141EA026171606A
:10116000B16811F0F00F00F0B780002108E100BF76
:101170000020C4F2472000210160FFF77BFC0546F8
:10118000306880077FF5CCAEFFF774FC401B022867
:101190004FF00300F4D9B1E6706B20F480707063F7
:1011A000706B20F480607063FFF764FC054641F2C9
:1011B000883700BF706B800522D5FFF75BFC401BB2
:1011C000B8424FF00300F5D998E600BF706B40F4C9
:1011D00080607063706B40F480707063FFF74AFC4E
:1011E000054641F2883700BF706B800508D4FFF7D1
:1011F00041FC401BB842F7D9032003B0BDE8F0839F
:10120000B8F1000F7FF495AE706A20F080507062E4
:101210008FE600BF306820F480303060306820F402
:1012200080203060FFF726FC054600BF3068800351
:101230007FF543AEFFF71EFC401B64284FF0030010
:10124000F4D95BE6306840F480203060306840F4C8
:1012500080303060FFF70EFC054600BF3068800329
:101260003FF52BAEFFF706FC401B64284FF0030050
:10127000F4D943E6716AC90047F20001C4F20001E3
:1012800040D4726A42F080527262726A02F08052F6
:101290000192019A0A68716A21F08051716232E00C
:1012A000B06804F128030ECB20F47D0008431043FE
:1012B0001843B06001203866FFF7DCFB044600BF2E
:1012C000306880013FF551AEFFF7D4FB001B0228C8
:1012D0004FF00300F4D911E6716AC90047F200012A
:1012E000C4F200013AD4726A42F080527262726AA9
:1012F00002F080520292029A0A68716A21F08051CB
:1013000071622CE00A68B0F5404F4FF000010BD13C
:1013100002F4C052B2F5C05F06D1D6F8001441F015
:101320000401C6F800140121D6F8002422F00102BD
:101330000A44C6F80024D6F8002402F001028A42CA
:101340004AD1716821F46041014371607168E269BA
:1013500021F07F4141EA026171601EE00A68B0F548
:10136000404F4FF000010BD102F4C052B2F5C05F04
:1013700006D1D6F8001441F00401C6F8001401218A
:10138000D6F8002422F001020A44C6F80024D6F858
:10139000002402F001028A421ED1B16842F2B46216
:1013A000C1F30311C0F60002400B515C4FF48032D0
:1013B00002FA00F020FA01F140F20800C2F2000047
:1013C00040F210020068C2F200021160FFF776FBE3
:1013D00000287FF493ADA6E5012003B0BDE8F083BB
:1013E000411E0020B0EB116F1CBF012070474EF270
:1013F0001002CEF2000251604EF62351CEF20001EF
:10140000F0230B7007219060116070477047000057
:10141000B0B5054600680168C368446901F02F0251
:10142000202A03F0200213D192B195F83A10222914
:1014300040F0DE80A968B1F5805F41D12A69A96AD0
:101440004068002A62D0C0B221F8010B62E000BF00
:101450005FEA017C1EBF04F0010E03F4907414EBEC
:101460000E0439D10A0617D513F0800214D095F86E
:101470003910212940F0BC80AA68296AB2F5805F42
:1014800032D10A886FF35F2242602A69002A14BFB2
:101490000131023129622BE0490640F1A98013F0A5
:1014A000400108BFB0BDC16821F04001C1602021EA
:1014B000284685F83910BDE8B04000F051BA00BFA9
:1014C000296940680029A96A18BF00F07F004A1CFA
:1014D000AA6208701FE000BFCC0718BF13F4807326
:1014E00034D14B0738D43EE04A1C2A620978416067
:1014F000E98C01390A04E9847AD1C16821F08001BC
:10150000C160C16841F04001C160B0BD6FF35F20B0
:1015100021F8020BA962E88D01380104E88567D142
:101520002868C16821F02001C160C16821F4807180
:10153000C160416921F0010141612021284685F8FF
:101540003A10BDE8B04000F031B900BFEB6B43F09A
:101550000103EB634B0706D5BEF1000F03D0EB6B25
:1015600043F00203EB638B0706D5BEF1000F03D0F7
:10157000EB6B43F00403EB63BCF1000F06D5BEF147
:10158000000F03D0EB6B43F00803EB63EB6B7BB313
:1015900011F0200118BF002A38D128684169EA6B90
:1015A00001F0400102F00802891823D0C16821F43B
:1015B0009071C160416921F001014161202185F8EC
:1015C0003A10416949061BD5416921F0400141614A
:1015D000686BA8B141F6ED11C0F600014163FFF759
:1015E00053F928B1686B416BBDE8B040084700BFB4
:1015F000B0BD00BF2846FFF709FF0020E863B0BD7B
:101600002846BDE8B040FFF701BF00BF95F83A108B
:101610002229C2D1A968B1F5805F07D12A69A96AD8
:1016200040687AB1C0B221F8010B0FE02969406827
:101630000029A96A18BF00F07F004A1CAA6208703E
:1016400005E000BF6FF35F2021F8020BA962E88D6F
:1016500001380104E885A0D12868C16821F0200183
:10166000C160C16821F48071C160416921F001014C
:101670004161202085F83A00284600F097F88CE771
:10168000002804BF0120704710B5044690F83900C7
:1016900028B9002084F83800204600F021F82420E2
:1016A00084F839002068C16821F40051C1602046E7
:1016B00000F0A2F92068016921F4904101614169BB
:1016C00021F02A014161C16841F40051C16000204C
:1016D0002021E06384F8391084F83A1010BD00002E
:1016E00080B586B0016844F20040C4F20000814237
:1016F00002D006B080BD00BF43F61C01C4F2020157
:101700008A6800F5DE3042F400328A608A6802F4AA
:1017100000320192019A0A6842F001020A600968E7
:1017200001F00101019101990C2101910221029125
:1017300000210391032104910721059101A9FFF7DD
:10174000CFF8262000210022FFF718FA2620FFF705
:1017500001FA06B080BD0000034690F83A00202848
:101760000AD100294FF0010018BF002A00D17047AC
:1017700093F83800012801D10220704799620020B7
:1017800022219A85DA85D86383F83A10196883F89C
:101790003800CA6842F48072CA604A6942F00102A5
:1017A0004A61CA6842F02002CA607047B0B540F290
:1017B0004C04C2F2000400686168884218BFB0BDE2
:1017C000254615F8040B00F061FA2846214601224F
:1017D000BDE8B040FFF7C0BF2DE9F041044690F8E6
:1017E000390020280ED10F4600294FF0010000F0EB
:1017F000B4801646002A08BFBDE8F08194F838008E
:10180000012803D10220BDE8F08100BF012084F847
:1018100038000020E06321201D4684F83900FFF7DE
:1018200029F9A684E684E18C0646002960D005F1FA
:10183000010805E017F8011B4160E18C002958D030
:10184000E08C0138E0842068A1680268B1F5805F0F
:1018500002F080011ED179B9B8F1000F2CD0002D13
:101860006AD000BFFFF706F9811B2068A94263D840
:1018700001680906F6D500BF39886FF35F21416022
:101880002169002914BF01370237E18C0029D7D123
:101890002FE000BF0029CDD1B8F1000F1AD0002DE4
:1018A0004AD000BFFFF7E6F8811B2068A94243D861
:1018B00001680906F6D5BDE701680906DCD40168B0
:1018C00009065CBF01685FEA0161D5D401680906B9
:1018D000F2D5D1E701680906ACD4016809065CBFFE
:1018E00001685FEA0161A5D401680906F2D5A1E7A4
:1018F0002068016849061AD4F5B1691C0ED1016847
:10190000490614D4016849065CBF01685FEA416179
:101910000DD401684906F2D509E000BFFFF7AAF827
:10192000811B2068A94207D800684006F6D5202010
:1019300084F8390000200DE0C16821F4D071C16045
:10194000416921F001014161202084F8390084F8C7
:101950003A000320002184F83810BDE8F08100002F
:1019600070470000FEE700000021C4F2A411012826
:1019700004BF0021C4F20E21002804BF0021C4F2DC
:10198000F411084670470000FEE7000070470000B1
:101990007047000070470000FFF772B843F6000080
:1019A000C4F2020001684CF20C0241F48071016043
:1019B0008168C8F6FF021140816001684FF6FE722F
:1019C000CEF6FE6211400160016821F480210160C1
:1019D000816821F47D0181600021C1604EF60850CC
:1019E000CEF200004FF0006101607047406A0021B4
:1019F000C185C184FFF70ABD70B50446006804F1D3
:101A000008030ECB0569194325F440552A430261AA
:101A1000626949F20C651143E269C3684FF69C762E
:101A2000AB4319431143C1604169A36921F440717B
:101A30001943416143F60001C0F6FF76B2F5004F4D
:101A4000C4F2010104D1884208D0FFF7E9F907E0A8
:101A5000884227D0FFF7E4F926E000BFFFF7F4F94A
:101A60006268192148435100B0FBF1F048F21F5160
:101A7000C5F2EB11A0FB01235A0906F1805302FBCA
:101A80000300322303EBC000A0FB01014FF4F87008
:101A900000EA111000EB0210C1F342110844216862
:101AA000886070BDFFF7D0F9626819214843910042
:101AB000B0FBF1F048F21F51C5F2EB11A0FB01237E
:101AC0005A0902FB0600322303EB0010A0FB0101C0
:101AD000F02000EA511000EB0210C1F3431108445A
:101AE0002168886070BD000040F25000C2F2000022
:101AF000FFF78EBCFEE7000070B58AB042F2D564F5
:101B0000C0F600042146FEF73FFB00256E4600BFED
:101B1000E9B246F8210000202146FEF735FB0028F7
:101B200005F10105F4D1009805A1FEF71EFB08B1EF
:101B30000AB070BDE9B2684600F006F80AB070BDA0
:101B400067657454656D7000012903D817A000F013
:101B5000B7B800BF02290FD180B54068FEF736FB49
:101B6000C0B2FFF701FFFEF73EFB02460AA00B469C
:101B7000BDE8804000F0A4B801A000F0A1B800BF0B
:101B8000746F6F206D756368206172672C206172BD
:101B900067203D2025640A0054656D70657261748C
:101BA000757265203D2025660A000000646F6E7422
:101BB00020656E6F756768206172672C206172679F
:101BC000203D2025640A000092B0FEF767FF002642
:101BD00047F20000CDE90C66CDE90A66CDE908665A
:101BE000CDE90666C4F200000168012262F3CC214F
:101BF000016002200590CDE90E064FF48020109080
:101C00004FF480001021119005A808920991FFF768
:101C10002FF90F2000900320CDE90106684601212D
:101C2000CDE90366FEF7E6FF43F61C00C4F20200AE
:101C3000016840F24C0441F0010101600068C2F209
:101C4000000400F001000590059844F20040C4F241
:101C50000000254645F8040F4FF4E1300C21C4E99B
:101C600002062846C4E90466C4E906162662FFF7A0
:101C700007FD284621460122FFF76EFD284600F0A9
:101C800019F800BF00F03EF8FCE7000040F2180130
:101C9000C2F200014A780A2802F101034B701EBF0C
:101CA00011448870704788180022827001200870E3
:101CB0007047000040F29001C2F2000108607047D6
:101CC00083B0B0B58FB0844613A80DF10A040EC0DE
:101CD00013AA20466146019200F024F840F29000D9
:101CE000C2F2000005682046FEF738FA82B22846A4
:101CF00021466423FFF770FD0FB0BDE8B04003B08C
:101D00007047000010B540F21804C2F200042078B9
:101D1000002808BF10BD6178A01CFFF7EDFE002071
:101D2000208010BD37B514460846064B6A4621464A
:101D300000F0E0F804466946002000F072FC2046FE
:101D40003EBD000023260008004870470400002024
:101D500002E008C8121F08C1002AFAD17047704774
:101D6000002001E001C1121F002AFBD170470000D2
:101D70002DE9FF5F82B00021DDE90430020DDDF8BE
:101D800040B0034318D044F61050A2F2FF32424351
:101D90001514119801281FD0A5EB0B00401C5FEA19
:101DA000000A4FF000064E4FDFF83891B04650461B
:101DB00015D5CAF1000413E0119801244AA30128A3
:101DC00001D16FEA0B010298119AC0E90031C0E914
:101DD000024206B0BDE8F09FCBF10000DFE7044609
:101DE0000021404A491842EB0450CDE9001012E0AE
:101DF000E00707D032463B4640464946FEF72CFBFB
:101E00008046894632463B4610461946FEF724FB7B
:101E100006460F466410002CEAD1DDE90401DDE935
:101E20000023BAF1000F06DAFEF716FB42464B46D6
:101E3000FEF712FB05E0FEF781FB42464B46FEF73C
:101E40007DFB04460E460022284BFEF7FFFB03D81D
:101E50004FF0FF30014607E00022254B2046314677
:101E6000FEF753FAFEF7D9FB102409E0002C0ADB39
:101E70000A220023FEF7E0F9039B30321A55641E54
:101E800050EA0102F2D1641C039AC4F11103144414
:101E9000119A012A03D0012208430DD10AE0084318
:101EA00004D000204FF0110B119072E7A3EB0B054B
:101EB0006D1E0DE05B4504DD4FF0000205F10105EC
:101EC00004E003DA4FF00002A5F10105002AECD08E
:101ED00002981199C0E90231C0E9004579E7000094
:101EE000000014400000F03F300000000000F0430C
:101EF0000000E03F2DE9FF4F95B09B46894606461E
:101F000000250FE2252877D100242746F84A012131
:101F1000059400E0044316F8013F203B01FA03F06A
:101F20001042F7D130782A2811D06FF02F03307883
:101F3000A0F13002092A16D8059A44F0020402EBF7
:101F4000820203EB42021044761C0590EFE759F839
:101F5000042B0592002A03DA504244F40054059001
:101F600044F00204761C30782E2816D116F8010FA2
:101F700044F004042A280DD06FF02F023078A0F12D
:101F80003003092B09D807EB870302EB4303C7187B
:101F9000761CF3E759F8047B761C30786C280FD058
:101FA00006DC4C2817D068280DD06A2814D104E02C
:101FB000742810D07A280FD10DE044F400140AE000
:101FC00044F4801401E044F440147278824202D157
:101FD00004F58014761C761C307866280BD013DC50
:101FE000582877D009DC002875D04528F6D0462837
:101FF000F4D047281AD19DE118E0632835D0642831
:1020000079D0652812D195E1702873D008DC672853
:10201000F1D069286FD06E280DD06F2806D1B5E0B9
:1020200073282CD0752875D0782874D05A46179903
:1020300090476D1C75E1C4F30250022809D00328B3
:102040000DD0D9F8001004280DD00D6009F1040955
:1020500067E1D9F80010EA17C1E90052F6E7D9F8AC
:1020600000100D80F2E70D70F0E719F8041B8DF8F1
:10207000001000208DF80100EA46012003E059F825
:1020800004AB4FF0FF3061074FF0000102D40DE0C8
:1020900008F101018846B9420FDA8045F8DB1AF8E9
:1020A00008100029F4D108E008F1010188468142B6
:1020B000FADB1AF808100029F6D105985B46A0EB68
:1020C000080721463846179A00F094FA284400EB96
:1020D000080507E04DE029E10DE01AF8010B5A462A
:1020E00017999047B8F10108F7D25B462146384668
:1020F000179A13E142E00A220092C4F302524FF011
:10210000000A022A08D059F804CB032A4FEAEC71DE
:102110000AD00DE029E02AE009F1070121F00702C9
:10212000F2E802C1914609E00FFA8CFC4FEAEC712B
:10213000042A03D14FFA8CFC4FEAEC71002907DA2C
:102140000A460021DCF1000C61EB02012D2202E0C5
:10215000220504D52B228DF80420012203E0E2079A
:1021600001D02022F7E7904659E00A2102E0102230
:102170000DE010214FF0000A00910BE010224FF00B
:10218000000A44F004040827009203E008224FF0FC
:10219000000A0092C4F30252022A05D059F804CB77
:1021A0000021032A08D009E009F1070121F0070204
:1021B000F2E802C1914605E01FFA8CFC042A01D125
:1021C0000CF0FF0C4FF00008220728D5702806D02D
:1021D000009B83F0100353EA0A0305D00EE040226F
:1021E0008DF80420012208E05CEA010206D03022CA
:1021F0008DF804208DF8050002229046009B83F0A4
:10220000080353EA0A030AD15CEA010201D162071A
:1022100005D530228DF804204FF001087F1E582884
:1022200004D034A003900EA802900DE036A0F9E788
:1022300053466046009AFDF7FFFF84460398825C90
:102240000298401E029002705CEA0100F0D10298F0
:1022500006A9081A00F1200A600702D524F4803488
:1022600000E00127574502DDA7EB0A0000E000204F
:1022700000EB0A01009005984144401A0590E003E4
:1022800006D45B462146179A059800F0B3F9054439
:10229000002706E001A85A46C05D179990476D1CBB
:1022A0007F1C4745F6DBE0030CD55B462146179AB9
:1022B000059800F09FF9054404E030205A4617992C
:1022C00090476D1C0099481E00900029F5DC08E03D
:1022D000029802995A460078491C02911799904732
:1022E0006D1CBAF10001AAF1010AF1DC65E1000000
:1022F00009280100303132333435363738396162DC
:10230000636465660000000030313233343536379F
:1023100038394142434445460000000000F058F976
:102320000544761C307800287FF4ECAD19B02846BF
:10233000BDE8F08F620700D4062709F1070222F0FA
:10234000070CFCE80223E14603F000485FEA080CB2
:1023500002D00FF2702C0DE05FEA045C02D50FF2A0
:10236000682C07E05FEAC47C02D00FF2602C01E029
:10237000AFF2700C4FF0FF3823F00043CDF850C09F
:1023800065280CD006DC452809D046281DD04728F2
:102390003DD13DE0662818D067287ED138E0002185
:1023A000112F01DB112000E0781CCDE9000106A906
:1023B0000EA8FFF7DDFCDDE90F010E9A0391002165
:1023C000009207F1010A04914DE04FF000400097A0
:1023D000CDE9011006A90EA8FFF7CAFCDDE90F023E
:1023E00003920E9B11990022DDF80CA00093049239
:1023F00011B9791C00EB010AB7EB0A0004D4C0F153
:10240000FF3007F1010A0490AAEB0700019044E0B5
:10241000012F00DA01270021112F01DD112000E03A
:102420003846CDE9000106A90EA8FFF7A1FCDDE9B9
:102430000F010E9A0391002104910092BA462107E0
:102440000CD40399514500DA8A46BAF1010F05DD33
:10245000009AAAF10101515C302908D0B84202DA91
:1024600010F1040F06DA0121CDE9011015E0AAF1FF
:102470000101E9E7002805DC049901440491AAEB75
:10248000000102E0411C514500DD8A460499401AD2
:10249000401C01904FF000400290200704D40198A6
:1024A000504501DBCDF8048000208DF84F000298E4
:1024B0000DF14F07B0F1004F25D02B200E90029860
:1024C0004FF0020800280CDA404202902D200E90B6
:1024D00007E00A210298FDF799FE3031029007F8D3
:1024E000011DB8F10001A8F10108F2DC02980028F2
:1024F000EFD1791E0E980870307800F0200040F07F
:10250000450007F8020D12A8C01B00F10708149837
:10251000007800B1012000EB0A01019801EBE071A5
:1025200005984144401A401E0590E00306D45B46DE
:102530002146179A059800F05DF805441498007834
:1025400018B15A46179990476D1CE00324D55B4695
:102550002146179A059800F04DF805441CE00498B0
:10256000002807DBDDE90301884203DD0098405CB9
:10257000179901E0179930205A469047049805F1C1
:102580000105401C04900198401E019004D12E20AA
:102590005A46179990476D1CBAF10001AAF1010A39
:1025A000DDDC05E017F8010B5A46179990476D1CC2
:1025B000B8F10001A8F10108F4DC5B462146179A46
:1025C0000598ABE62D0000002B0000002000000065
:1025D0002DE9F041044600251E461746880404D420
:1025E00005E039462020B0476D1C641EF9D5284609
:1025F000BDE8F0812DE9F041044600251E469046D5
:10260000C80301D5302700E02027880404D505E061
:1026100041463846B0476D1C641EF9D52846BDE8D2
:10262000F0810A68531C0B601070704700404040F6
:102630004040404040404141414141404040404095
:102640004040404040404040404040404005020241
:102650000202020202020202020202020220202000
:10266000202020202020200202020202020290905C
:10267000909090901010101010101010101010105A
:1026800010101010101010100202020202028888AE
:1026900088888888080808080808080808080808BA
:1026A00008080808080808080202020240000000A2
:1026B0002D260008000000000000000001020304B5
:1026C00006070809000000000102030403040608CD
:1026D0000C10182030200000F82600080000002010
:1026E00018000000501D00081027000818000020E6
:1026F00080040000601D00080000000000000000D1
:10270000100000000100000068FF1F000000000032
:0400000508000125C9
:00000001FF
